:1000000012C019C018C017C016C015C014C013C044
:1000100012C011C010C00FC00EC00DC00CC00BC06C
:100020000AC009C008C011241FBECFE5D4E0DEBF5E
:10003000CDBF38D094C0E4CFFC0142815381413020
:10004000510549F0268137812130310521F0848125
:100050009581019729F481E090E091878087089548
:100060004115510531F42115310569F48FE780837D
:1000700008C04230510571F4232B61F481E880837C
:100080008FE7818308952230310521F48FE7808343
:1000900081E88183089580E090E001C0000001972D
:1000A000E9F70895EF92FF921F93DF93CF93CDB7B7
:1000B000DEB72A970FB6F894DEBF0FBECDBF8FEF25
:1000C00087BB18BA81BB12BA11E07E010894E11C0B
:1000D000F11C19831A82C70120D020E030E008C04B
:1000E00000000197E9F72F5F3F4F2530310519F0E8
:1000F00080E090E0F6CF19831A83C7010ED020E08C
:1001000030E008C000000197E9F72F5F3F4F25302E
:100110003105F9F280E090E0F6CFFC018081882380
:1001200029F4C19882B38C7F82BB08C0C19A18168B
:100130001CF49198909A02C09098919A818188239A
:1001400029F4C29882B38D7E82BB0895C29A87FF3C
:1001500003C09398929A08959298939A0895F89468
:02016000FFCFCF
:00000001FF
